S018000041746D65676133325F447269766572732E737265631A
S11300000C942A000C943E000C9465000C948C0013
S11300100C943C000C943C000C943C000C94340173
S11300200C945E010C940A010C9403020C942D02AE
S11300300C9488010C9457020C947E020C94A50233
S11300400C943C000C943C000C943C000C94E00098
S11300500C943C0011241FBECFE5D8E0DEBFCDBF19
S113006020E0A0E6B0E001C01D92A437B207E1F79A
S11300700E94D2020C94F2020C9400001F920F9280
S11300800FB60F9211242F933F934F935F936F9367
S11300907F938F939F93AF93BF93EF93FF93E091DD
S11300A06800F09169000995FF91EF91BF91AF91BC
S11300B09F918F917F916F915F914F913F912F917C
S11300C00F900FBE0F901F9018951F920F920FB6AE
S11300D00F9211242F933F934F935F936F937F93CA
S11300E08F939F93AF93BF93EF93FF93E0916A0035
S11300F0F0916B000995FF91EF91BF91AF919F91A2
S11301008F917F916F915F914F913F912F910F90BC
S11301100FBE0F901F9018951F920F920FB60F925B
S113012011242F933F934F935F936F937F938F93F8
S11301309F93AF93BF93EF93FF93E0916C00F09183
S11301406D000995FF91EF91BF91AF919F918F91B0
S11301507F916F915F914F913F912F910F900FBEBF
S11301600F901F901895FC01DB0111968C9111974B
S1130170813059F48C9180959181892381838C916C
S113018080959281892382830895823051F48C91E1
S113019080959181892381838C919281892B82839B
S11301A008958C919181892B81838C918095928182
S11301B0892382830895FC01228162276283089542
S11301C01F920F920FB60F9211242F933F934F93C8
S11301D05F936F937F938F939F93AF93BF93EF93AB
S11301E0FF93E0916000F09161000480F581E02DBF
S11301F00995FF91EF91BF91AF919F918F917F915D
S11302006F915F914F913F912F910F900FBE0F907F
S11302101F9018951F920F920FB60F9211242F93CF
S11302203F934F935F936F937F938F939F93AF937A
S1130230BF93EF93FF93E0916200F0916300048415
S1130240F585E02D0995FF91EF91BF91AF919F91B5
S11302508F917F916F915F914F913F912F910F906B
S11302600FBE0F901F9018951F920F920FB60F920A
S113027011242F933F934F935F936F937F938F93A7
S11302809F93AF93BF93EF93FF93E0916200F0913C
S113029063000684F785E02D0995FF91EF91BF91E6
S11302A0AF919F918F917F916F915F914F913F910A
S11302B02F910F900FBE0F901F9018951F920F92C1
S11302C00FB60F9211242F933F934F935F936F9325
S11302D07F938F939F93AF93BF93EF93FF93E0919B
S11302E06200F09163000088F189E02D0995FF9187
S11302F0EF91BF91AF919F918F917F916F915F919A
S11303004F913F912F910F900FBE0F901F90189512
S11303101F920F920FB60F9211242F933F934F9376
S11303205F936F937F938F939F93AF93BF93EF9359
S1130330FF93E0916400F09165000780F085E02D63
S11303400995FF91EF91BF91AF919F918F917F910B
S11303506F915F914F913F912F910F900FBE0F902E
S11303601F901895FF920F931F93CF93DF9300D0A4
S1130370CDB7DEB78C019093670080936600FC01D3
S1130380F0808281F82A8181882361F0F82A88E04C
S1130390898383E08A83BE016F5F7F4F86E390E0A9
S11303A00E94B300F80194818381892B95819CBFBD
S11303B09481913039F499B7916099BF9FB790684F
S11303C09FBF06C099B79E7F99BF9FB79F779FBF76
S11303D0F8019381913039F499B7926099BF9FB72E
S11303E090689FBF06C099B79D7F99BF9FB79F77BD
S11303F09FBFF3BE89BF0F900F90DF91CF911F91E4
S11304000F91FF9008951F920F920FB60F9211242F
S11304102F933F934F935F936F937F938F939F9308
S1130420AF93BF93EF93FF93E0916600F091670061
S11304300084F185E02D0995FF91EF91BF91AF9173
S11304409F918F917F916F915F914F913F912F91E8
S11304500F900FBE0F901F9018951F920F920FB61A
S11304600F9211242F933F934F935F936F937F9336
S11304708F939F93AF93BF93EF93FF93E0916600A5
S1130480F09167000680F781E02D0995FF91EF91C7
S1130490BF91AF919F918F917F916F915F914F9198
S11304A03F912F910F900FBE0F901F9018951F92A0
S11304B00F920FB60F9211242F933F934F935F9394
S11304C06F937F938F939F93AF93BF93EF93FF9318
S11304D0E0917200F09173000995FF91EF91BF9143
S11304E0AF919F918F917F916F915F914F913F91C8
S11304F02F910F900FBE0F901F9018951F920F927F
S11305000FB60F9211242F933F934F935F936F93E2
S11305107F938F939F93AF93BF93EF93FF93E09158
S11305207000F09171000995FF91EF91BF91AF9127
S11305309F918F917F916F915F914F913F912F91F7
S11305400F900FBE0F901F9018951F920F920FB629
S11305500F9211242F933F934F935F936F937F9345
S11305608F939F93AF93BF93EF93FF93E0916E00AC
S1130570F0916F000995FF91EF91BF91AF919F9119
S11305808F917F916F915F914F913F912F910F9038
S11305900FBE0F901F90189561E089E390E00E94D0
S11305A0DB000895CF93DF93CDB7DEB72A970FB65C
S11305B0F894DEBF0FBECDBF85E08B838FEF8E83B3
S11305C01C8280E18A831A8619868CEC92E09887D3
S11305D08F8380E4898381E08D83CE0101960E941C
S10B05E0B201FFCFF894FFCF34
S9030000FC
