:100000000C942A000C943E000C9465000C948C0017
:100010000C943C000C943C000C943C000C943C0070
:100020000C943C000C943C000C943C000C943C0060
:100030000C943C000C94ED020C9414030C943B03C0
:100040000C943C000C943C000C943C000C943C0040
:100050000C943C0011241FBECFE5D8E0DEBFCDBF1D
:1000600020E0A0E6B0E001C01D92A23DB207E1F79A
:100070000E9489030C949F050C9400001F920F921C
:100080000FB60F9211242F933F934F935F936F936B
:100090007F938F939F93AF93BF93EF93FF93E091E1
:1000A0006200F09163000995FF91EF91BF91AF91CC
:1000B0009F918F917F916F915F914F913F912F9180
:1000C0000F900FBE0F901F9018951F920F920FB6B2
:1000D0000F9211242F933F934F935F936F937F93CE
:1000E0008F939F93AF93BF93EF93FF93E09164003F
:1000F000F09165000995FF91EF91BF91AF919F91AC
:100100008F917F916F915F914F913F912F910F90C0
:100110000FBE0F901F9018951F920F920FB60F925F
:1001200011242F933F934F935F936F937F938F93FC
:100130009F93AF93BF93EF93FF93E0916600F0918D
:1001400067000995FF91EF91BF91AF919F918F91BA
:100150007F916F915F914F913F912F910F900FBEC3
:100160000F901F901895FC01DB0111968C9111974F
:10017000813059F48C9180959181892381838C9170
:1001800080959281892382830895823051F48C91E5
:1001900080959181892381838C919281892B82839F
:1001A00008958C919181892B81838C918095928186
:1001B0008923828308950F931F93CF93DF9300D0F9
:1001C000CDB7DEB78C019093610080936000FC0195
:1001D00082819EEF980F9230B8F580B5806880BD1F
:1001E00080B5806480BD8181813041F480B58068B4
:1001F00080BD90B58181892B80BD0AC08E3F41F4BE
:1002000080B5806880BD90B5F8018181892380BD6B
:10021000F8016581768180E090E00E94A4049B0152
:10022000AC010E9497039B01AC0160E074E284EF93
:100230009AE40E94030420E030E040E05FE30E9483
:1002400096030E9475044FC0811127C080B5806855
:1002500080BD80B58F7B80BD8BB182608BB9F8018A
:100260006581768180E090E00E94A40420E030E087
:1002700040E051E40E9432059B01AC0160E074E271
:1002800084EF9AE40E94030420E030E040E05FE362
:100290000E9496030E94750426C080B5806880BDC8
:1002A00080B58F7B80BD8BB18D7F8BB9F801658167
:1002B000768180E090E00E94A40420E030E040E8F5
:1002C00051E40E9432059B01AC0160E074E284EFCE
:1002D0009AE40E94030420E030E040E05FE30E94E3
:1002E00096030E947504F8018381833011F128F48C
:1002F000813041F0823081F03CC0843039F185306A
:1003000079F137C08AB18B7F8AB980B5806880BDAA
:1003100080B5897F80BD2DC08AB18B7F8AB980B5B9
:10032000806880BD80B5897F80BD80B5826080BDDA
:1003300020C08AB18B7F8AB980B5806880BD80B5C6
:10034000897F80BD80B5846080BD13C08AB18B7FFA
:100350008AB980B5806880BD80B5866080BD09C0DF
:100360008AB184608AB980B5806880BD80B58660B6
:1003700080BDF8018481883051F0873F81F480B5D9
:10038000806880BD90B58481892380BD08C080B518
:10039000806880BD90B5F8018481892B80BDF8010B
:1003A00087818033B9F08F3C19F08032D9F409C0CD
:1003B00080B5806880BD90B5F8018781892380BDB4
:1003C00011C080B5806880BD90B5F8018781892B08
:1003D00080BD08C080B5806880BD90B5F801878178
:1003E000892B80BD80B58F7780BD70BD69B9F8015C
:1003F0008085813069F028F08230C1F0833021F1AE
:1004000030C08AB18F718AB98FB78F778FBF29C0FB
:10041000F8018185928590936900809368008AB184
:1004200080648AB98FB780688FBF1BC0F80181854F
:10043000928590936B0080936A008AB180628AB93A
:100440008FB780688FBF0DC0F8018185928590932A
:100450006D0080936C008AB180688AB98FB780681C
:100460008FBFF80180819AB1892B8AB9E091600031
:10047000F09161008281823061F481E0898383E0C0
:100480008A83BE016F5F7F4F86E390E00E94B300D6
:100490000DC0833059F481E0898382E08A83BE01F4
:1004A0006F5F7F4F86E390E00E94B3000F900F9044
:1004B000DF91CF911F910F910895611115C05F9B3E
:1004C000FECFE0916000F09161002381253031F48E
:1004D0002AB126952170FC01108221832CB130E0D5
:1004E000FC013183208308955F9B12C0E09160007E
:1004F000F09161002381253031F42AB126952170D5
:10050000FC01108221832CB130E0FC013183208377
:100510000895611117C05D9BFECFE0916000F091DE
:1005200061002381253051F42AB12E7F2AB9FC01C4
:100530004081518150FF02C021602AB9FC018081B5
:100540008CB908955D9B14C0E0916000F09161004A
:100550002381253051F42AB12E7F2AB9FC01408134
:10056000518150FF02C021602AB9FC0180818CB901
:1005700008951F93CF93DF93EC01162FE091600055
:10058000F09161008381843049F405C0612FCE0170
:100590000E948902219688818332C1F7DF91CF9131
:1005A0001F9108951F93CF93DF93EC01162FE091D5
:1005B0006000F09161008381843059F405C0612F9F
:1005C000CE010E945D022196FE0131978081833227
:1005D000B1F7DF91CF911F9108951F920F920FB63F
:1005E0000F9211242F933F934F935F936F937F93B9
:1005F0008F939F93AF93BF93EF93FF93E0916C0022
:10060000F0916D000995FF91EF91BF91AF919F918E
:100610008F917F916F915F914F913F912F910F90AB
:100620000FBE0F901F9018951F920F920FB60F924A
:1006300011242F933F934F935F936F937F938F93E7
:100640009F93AF93BF93EF93FF93E0916A00F09174
:100650006B000995FF91EF91BF91AF919F918F91A1
:100660007F916F915F914F913F912F910F900FBEAE
:100670000F901F9018951F920F920FB60F92112492
:100680002F933F934F935F936F937F938F939F939A
:10069000AF93BF93EF93FF93E0916800F0916900EF
:1006A0000995FF91EF91BF91AF919F918F917F91AC
:1006B0006F915F914F913F912F910F900FBE0F90CF
:1006C0001F901895CF93DF93CDB7DEB72B970FB65A
:1006D000F894DEBF0FBECDBF80E699E09F838E8386
:1006E0001B82198688E1898384E08C8387EF8D8360
:1006F0001B861A868FEC8887CE0101960E94DB004C
:100700002B960FB6F894DEBF0FBECDBFDF91CF9111
:1007100008950E94620360E08EE690E00E94D2029B
:1007200060E08EE690E00E94B902F5CF5058BB27FA
:10073000AA270E94AE030C94F8040E94EA0438F041
:100740000E94F10420F039F49F3F19F426F40C9430
:10075000E7040EF4E095E7FB0C94E104E92F0E9416
:10076000090558F3BA17620773078407950720F045
:1007700079F4A6F50C942B050EF4E0950B2EBA2F08
:10078000A02D0B01B90190010C01CA01A001112497
:10079000FF27591B99F0593F50F4503E68F11A1643
:1007A000F040A22F232F342F4427585FF3CF4695D4
:1007B00037952795A795F0405395C9F77EF41F16F6
:1007C000BA0B620B730B840BBAF09150A1F0FF0FC0
:1007D000BB1F661F771F881FC2F70EC0BA0F621FAC
:1007E000731F841F48F4879577956795B795F7959C
:1007F0009E3F08F0B0CF9395880F08F09927EE0F31
:100800009795879508950E9417040C94F8040E9408
:10081000F10458F00E94EA0440F029F45F3F29F007
:100820000C94E10451110C942C050C94E7040E94E3
:10083000090568F39923B1F3552391F3951B550BE3
:10084000BB27AA2762177307840738F09F5F5F4FA3
:10085000220F331F441FAA1FA9F335D00E2E3AF0E2
:10086000E0E832D091505040E695001CCAF72BD0FA
:10087000FE2F29D0660F771F881FBB1F261737074B
:100880004807AB07B0E809F0BB0B802DBF01FF277D
:1008900093585F4F3AF09E3F510578F00C94E10475
:1008A0000C942C055F3FE4F3983ED4F3869577953E
:1008B0006795B795F7959F5FC9F7880F911D969536
:1008C000879597F90895E1E0660F771F881FBB1F92
:1008D000621773078407BA0720F0621B730B840B3F
:1008E000BA0BEE1F88F7E09508950E94110588F075
:1008F0009F5798F0B92F9927B751B0F0E1F0660FE4
:10090000771F881F991F1AF0BA95C9F714C0B13024
:1009100091F00E942B05B1E008950C942B05672FF0
:10092000782F8827B85F39F0B93FCCF38695779553
:100930006795B395D9F73EF490958095709561953C
:100940007F4F8F4F9F4F0895E89409C097FB3EF467
:1009500090958095709561957F4F8F4F9F4F99230C
:10096000A9F0F92F96E9BB279395F695879577958A
:100970006795B795F111F8CFFAF4BB0F11F460FF4A
:100980001BC06F5F7F4F8F4F9F4F16C0882311F0A2
:1009900096E911C0772321F09EE8872F762F05C0B6
:1009A000662371F096E8862F70E060E02AF09A9551
:1009B000660F771F881FDAF7880F9695879597F946
:1009C000089597F99F6780E870E060E008959FEFD1
:1009D00080EC089500240A941616170618060906D6
:1009E000089500240A9412161306140605060895A5
:1009F000092E0394000C11F4882352F0BB0F40F42D
:100A0000BF2B11F460FF04C06F5F7F4F8F4F9F4F6C
:100A1000089557FD9058440F551F59F05F3F71F0EE
:100A20004795880F97FB991F61F09F3F79F0879555
:100A30000895121613061406551FF2CF4695F1DFDE
:100A400008C0161617061806991FF1CF869571056E
:100A5000610508940895E894BB2766277727CB01A2
:100A600097F908950E9445050C94F8040E94EA0441
:100A700038F00E94F10420F0952311F00C94E10469
:100A80000C94E70411240C942C050E94090570F3C2
:100A9000959FC1F3950F50E0551F629FF001729F23
:100AA000BB27F00DB11D639FAA27F00DB11DAA1F32
:100AB000649F6627B00DA11D661F829F2227B00D7F
:100AC000A11D621F739FB00DA11D621F839FA00D0A
:100AD000611D221F749F3327A00D611D231F849F5A
:100AE000600D211D822F762F6A2F11249F575040B1
:100AF0009AF0F1F088234AF0EE0FFF1FBB1F661F2C
:100B0000771F881F91505040A9F79E3F510580F0F4
:100B10000C94E1040C942C055F3FE4F3983ED4F36D
:100B2000869577956795B795F795E7959F5FC1F798
:100B3000FE2B880F911D9695879597F90895F89447
:020B4000FFCFE5
:00000001FF
