:100000000C942A000C9434000C9434000C943400AA
:100010000C9434000C9434000C9434000C94340090
:100020000C9434000C9434000C9434000C94340080
:100030000C9434000C9434000C9434000C94340070
:100040000C9434000C9434000C9434000C94340060
:100050000C94340011241FBECFE5D8E0DEBFCDBF25
:100060000E9436000C9459000C94000081B3806EFD
:1000700081BB81B38E7F81BB82B382BB85E0809BD5
:10008000FECF8930E0F792B321E030E0082E02C0C5
:10009000220F331F0A94E2F7292722BB2FEF34E304
:1000A0009CE0215030409040E1F700C000008F5F9D
:0600B000E6CFF894FFCF3B
:00000001FF
