:100000000C942A000C9434000C9434000C943400AA
:100010000C9434000C9434000C9434000C94340090
:100020000C9434000C9434000C9434000C94340080
:100030000C9434000C9434000C9434000C94340070
:100040000C9434000C9434000C9434000C94340060
:100050000C94340011241FBECFE5D8E0DEBFCDBF25
:100060000E9436000C9467000C9400008FEF84BB54
:1000700040E050E028C0CA0182959295907F982771
:10008000807F9827982F986095BB6FE778E3E1E031
:1000900061507040E040E1F700C00000846085BB23
:1000A0006FE778E381E0615070408040E1F700C085
:1000B00000002F5F3F4F02C020E030E02A303105C2
:1000C000D4F24F5F5F4F4A305105B4F3D1CFF8946B
:0200D000FFCF60
:00000001FF
