:100000000C942A000C943E000C9465000C948C0017
:100010000C943C000C943C000C943C000C943C0070
:100020000C943C000C943C000C943C000C943C0060
:100030000C947D010C9459030C9480030C94A70339
:100040000C943C000C943C000C943C000C943C0040
:100050000C943C0011241FBECFE5D8E0DEBFCDBF1D
:1000600020E0A0E6B0E001C01D92A137B207E1F7A1
:100070000E9400040C9432060C9400001F920F9210
:100080000FB60F9211242F933F934F935F936F936B
:100090007F938F939F93AF93BF93EF93FF93E091E1
:1000A0006400F09165000995FF91EF91BF91AF91C8
:1000B0009F918F917F916F915F914F913F912F9180
:1000C0000F900FBE0F901F9018951F920F920FB6B2
:1000D0000F9211242F933F934F935F936F937F93CE
:1000E0008F939F93AF93BF93EF93FF93E09166003D
:1000F000F09167000995FF91EF91BF91AF919F91AA
:100100008F917F916F915F914F913F912F910F90C0
:100110000FBE0F901F9018951F920F920FB60F925F
:1001200011242F933F934F935F936F937F938F93FC
:100130009F93AF93BF93EF93FF93E0916800F0918B
:1001400069000995FF91EF91BF91AF919F918F91B8
:100150007F916F915F914F913F912F910F900FBEC3
:100160000F901F901895FC01DB0111968C9111974F
:10017000813059F48C9180959181892381838C9170
:1001800080959281892382830895823051F48C91E5
:1001900080959181892381838C919281892B82839F
:1001A00008958C919181892B81838C918095928186
:1001B000892382830895413029F4FC012281622B36
:1001C00062830895411105C06095FC01228162237C
:1001D000628308950F931F93CF93DF938C019093C5
:1001E000610080936000FC01C1818FEF8C0F833030
:1001F00008F0C0E0F8018081803109F4C82BF801D3
:10020000D281D13009F0D0E0F8018381883019F033
:10021000873F49F009C0C82B41E060E886E390E0E1
:100220000E94DB0001C0C823F8018481843021F0E2
:100230008B3F19F4C82301C0C82BF8018581803297
:1002400019F08F3D19F003C0C82B01C0C823F80175
:1002500086818F3719F0803831F009C0C8238FB7F5
:100260008F778FBF04C0C82B8FB780688FBFDEB970
:10027000C064CDB9DF91CF911F910F9108956111A5
:1002800002C0779BFECF2FB1FC01208308951F93FE
:10029000CF93DF9300D0CDB7DEB711E01A8380E1B2
:1002A0008983BE016F5F7F4F86E390E00E94B300B9
:1002B0001A8380E28983BE016F5F7F4F86E390E0FF
:1002C0000E94B30083E08A8380E48983BE016F5F6C
:1002D0007F4F86E390E00E94B3001A8380E8898311
:1002E000BE016F5F7F4F86E390E00E94B3000F90E6
:1002F0000F90DF91CF911F9108951F920F920FB62B
:100300000F9211242F933F934F935F936F937F939B
:100310008F939F93AF93BF93EF93FF93E091600010
:10032000F09161000780F085E02D0995FF91EF9134
:10033000BF91AF919F918F917F916F915F914F91FD
:100340003F912F910F900FBE0F901F9018950F9314
:100350001F93CF93DF9300D0CDB7DEB78C0190937E
:10036000630080936200FC0182819EEF980F9230BF
:10037000B8F580B5806880BD80B5806480BD81811E
:10038000813041F480B5806880BD90B58181892B32
:1003900080BD0AC08E3F41F480B5806880BD90B5B5
:1003A000F8018181892380BDF8016581768180E033
:1003B00090E00E9437059B01AC010E942A049B013A
:1003C000AC0160E074E284EF9AE40E94960420E0BD
:1003D00030E040E05FE30E9429040E9408054FC01E
:1003E000811127C080B5806880BD80B58F7B80BDBE
:1003F0008BB182608BB9F8016581768180E090E0F5
:100400000E94370520E030E040E051E40E94C5053D
:100410009B01AC0160E074E284EF9AE40E949604D0
:1004200020E030E040E05FE30E9429040E940805DC
:1004300026C080B5806880BD80B58F7B80BD8BB1C4
:100440008D7F8BB9F8016581768180E090E00E9414
:10045000370520E030E040E851E40E94C5059B01EB
:10046000AC0160E074E284EF9AE40E94960420E01C
:1004700030E040E05FE30E9429040E940805F80193
:100480008381833011F128F4813041F0823081F092
:100490003CC0843039F1853079F137C08AB18B7F27
:1004A0008AB980B5806880BD80B5897F80BD2DC048
:1004B0008AB18B7F8AB980B5806880BD80B5897F1D
:1004C00080BD80B5826080BD20C08AB18B7F8AB933
:1004D00080B5806880BD80B5897F80BD80B584602F
:1004E00080BD13C08AB18B7F8AB980B5806880BD1A
:1004F00080B5866080BD09C08AB184608AB980B544
:10050000806880BD80B5866080BDF80184818830B8
:1005100051F0873F81F480B5806880BD90B58481BB
:10052000892380BD08C080B5806880BD90B5F80182
:100530008481892B80BDF80187818033B9F08F3C9D
:1005400019F08032D9F409C080B5806880BD90B5BB
:10055000F8018781892380BD11C080B5806880BD86
:1005600090B5F8018781892B80BD08C080B580686F
:1005700080BD90B5F8018781892B80BD80B58F77CC
:1005800080BD70BD69B9F8018085813069F028F0BF
:100590008230C1F0833021F130C08AB18F718AB9C5
:1005A0008FB78F778FBF29C0F8018185928590938F
:1005B0006B0080936A008AB180648AB98FB78068C3
:1005C0008FBF1BC0F8018185928590936D00809349
:1005D0006C008AB180628AB98FB780688FBF0DC006
:1005E000F8018185928590936F0080936E008AB1A7
:1005F00080688AB98FB780688FBFF80180819AB10F
:10060000892B8AB9E0916200F09163008281823087
:1006100061F481E0898383E08A83BE016F5F7F4F4D
:1006200086E390E00E94B3000DC0833059F481E06E
:10063000898382E08A83BE016F5F7F4F86E390E00B
:100640000E94B3000F900F90DF91CF911F910F91F7
:100650000895611117C05D9BFECFE0916200F0919B
:1006600063002381253051F42AB12E7F2AB9FC0181
:100670004081518150FF02C021602AB9FC01808174
:100680008CB908955D9B14C0E0916200F091630005
:100690002381253051F42AB12E7F2AB9FC014081F3
:1006A000518150FF02C021602AB9FC0180818CB9C0
:1006B00008951F920F920FB60F9211242F933F931C
:1006C0004F935F936F937F938F939F93AF93BF935A
:1006D000EF93FF93E0916E00F0916F000995FF9109
:1006E000EF91BF91AF919F918F917F916F915F91AA
:1006F0004F913F912F910F900FBE0F901F90189523
:100700001F920F920FB60F9211242F933F934F9386
:100710005F936F937F938F939F93AF93BF93EF9369
:10072000FF93E0916C00F0916D000995FF91EF91BE
:10073000BF91AF919F918F917F916F915F914F91F9
:100740003F912F910F900FBE0F901F9018951F9201
:100750000F920FB60F9211242F933F934F935F93F5
:100760006F937F938F939F93AF93BF93EF93FF9379
:10077000E0916A00F0916B000995FF91EF91BF91B4
:10078000AF919F918F917F916F915F914F913F9129
:100790002F910F900FBE0F901F90189560E080E78B
:1007A00090E00E943F0160E080E790E00E94290312
:1007B0000895CF93DF93CDB7DEB72B970FB6F8949C
:1007C000DEBF0FBECDBF80E895E29F838E831B8284
:1007D000198688E1898384E08C8387EF8D831B866B
:1007E0001A868FEC8887CE0101960E94A7012B966E
:1007F0000FB6F894DEBF0FBECDBFDF91CF91089545
:10080000CF93DF93CDB7DEB729970FB6F894DEBF4D
:100810000FBECDBF8CEF8A838FED8E8380E88F83F0
:100820008EEC93E0998788878BEF8D8387EF8C839D
:100830008EEF8B838FEE89830E944701CE01019654
:100840000E94EA000E94D903CE0101960E94EA00AC
:10085000FFCF5058BB27AA270E9441040C948B0558
:100860000E947D0538F00E94840520F039F49F3FF6
:1008700019F426F40C947A050EF4E095E7FB0C9439
:100880007405E92F0E949C0558F3BA176207730795
:100890008407950720F079F4A6F50C94BE050EF4B4
:1008A000E0950B2EBA2FA02D0B01B90190010C0180
:1008B000CA01A0011124FF27591B99F0593F50F498
:1008C000503E68F11A16F040A22F232F342F4427F0
:1008D000585FF3CF469537952795A795F0405395E8
:1008E000C9F77EF41F16BA0B620B730B840BBAF0B8
:1008F0009150A1F0FF0FBB1F661F771F881FC2F723
:100900000EC0BA0F621F731F841F48F48795779536
:100910006795B795F7959E3F08F0B0CF9395880FF0
:1009200008F09927EE0F9795879508950E94AA04DD
:100930000C948B050E94840558F00E947D0540F0C0
:1009400029F45F3F29F00C94740551110C94BF05F4
:100950000C947A050E949C0568F39923B1F3552302
:1009600091F3951B550BBB27AA27621773078407C2
:1009700038F09F5F5F4F220F331F441FAA1FA9F358
:1009800035D00E2E3AF0E0E832D091505040E69546
:10099000001CCAF72BD0FE2F29D0660F771F881FA7
:1009A000BB1F261737074807AB07B0E809F0BB0B9A
:1009B000802DBF01FF2793585F4F3AF09E3F5105AE
:1009C00078F00C9474050C94BF055F3FE4F3983EF7
:1009D000D4F3869577956795B795F7959F5FC9F797
:1009E000880F911D9695879597F90895E1E0660F18
:1009F000771F881FBB1F621773078407BA0720F091
:100A0000621B730B840BBA0BEE1F88F7E0950895F9
:100A10000E94A40588F09F5798F0B92F9927B751E5
:100A2000B0F0E1F0660F771F881F991F1AF0BA9592
:100A3000C9F714C0B13091F00E94BE05B1E008952D
:100A40000C94BE05672F782F8827B85F39F0B93F1F
:100A5000CCF3869577956795B395D9F73EF4909545
:100A60008095709561957F4F8F4F9F4F0895E894C3
:100A700009C097FB3EF490958095709561957F4FE6
:100A80008F4F9F4F9923A9F0F92F96E9BB27939594
:100A9000F695879577956795B795F111F8CFFAF4A4
:100AA000BB0F11F460FF1BC06F5F7F4F8F4F9F4FD5
:100AB00016C0882311F096E911C0772321F09EE833
:100AC000872F762F05C0662371F096E8862F70E099
:100AD00060E02AF09A95660F771F881FDAF7880F73
:100AE0009695879597F9089597F99F6780E870E044
:100AF00060E008959FEF80EC089500240A94161694
:100B0000170618060906089500240A9412161306FB
:100B1000140605060895092E0394000C11F4882389
:100B200052F0BB0F40F4BF2B11F460FF04C06F5FA5
:100B30007F4F8F4F9F4F089557FD9058440F551F7B
:100B400059F05F3F71F04795880F97FB991F61F04F
:100B50009F3F79F087950895121613061406551FC6
:100B6000F2CF4695F1DF08C0161617061806991F32
:100B7000F1CF86957105610508940895E894BB2727
:100B800066277727CB0197F908950E94D8050C9422
:100B90008B050E947D0538F00E94840520F0952386
:100BA00011F00C9474050C947A0511240C94BF0573
:100BB0000E949C0570F3959FC1F3950F50E0551F5F
:100BC000629FF001729FBB27F00DB11D639FAA27A2
:100BD000F00DB11DAA1F649F6627B00DA11D661FF1
:100BE000829F2227B00DA11D621F739FB00DA11D12
:100BF000621F839FA00D611D221F749F3327A00DCC
:100C0000611D231F849F600D211D822F762F6A2F67
:100C100011249F5750409AF0F1F088234AF0EE0FCC
:100C2000FF1FBB1F661F771F881F91505040A9F7F9
:100C30009E3F510580F00C9474050C94BF055F3FF6
:100C4000E4F3983ED4F3869577956795B795F79535
:100C5000E7959F5FC1F7FE2B880F911D96958795AD
:080C600097F90895F894FFCF05
:00000001FF
