S018000041746D65676133325F447269766572732E737265631A
S11300000C9432000C947D000C94A4000C94CB004E
S11300100C944F000C944F000C944F000C94560118
S11300200C9480010C9493040C94D4010C94FE0160
S11300300C94AA010C9428020C944F020C9476029E
S11300400C944F000C944F000C944F000C942C0112
S11300500C944F0048044B044E04510454045704B8
S11300605A045D0411241FBECFE5D8E0DEBFCDBF26
S113007010E0A0E6B0E0E0E5FEE002C005900D92DD
S1130080A036B107D9F720E0A0E6B0E001C01D9288
S1130090A238B207E1F70E94AA040C9426070C9434
S11300A00000FC019081903449F0903C39F09111AA
S11300B008C0909587B1982397B903C087B1982B4E
S11300C097B9918186B1892B806886B90895811189
S11300D005C0809597B1892387B903C097B1892B4F
S11300E087B986B1806486B98823F1F324B185B1D8
S11300F090E0982F8827822B08951F920F920FB6B5
S11301000F9211242F933F934F935F936F937F9399
S11301108F939F93AF93BF93EF93FF93E0916A0004
S1130120F0916B000995FF91EF91BF91AF919F9171
S11301308F917F916F915F914F913F912F910F908C
S11301400FBE0F901F9018951F920F920FB60F922B
S113015011242F933F934F935F936F937F938F93C8
S11301609F93AF93BF93EF93FF93E0916C00F09153
S11301706D000995FF91EF91BF91AF919F918F9180
S11301807F916F915F914F913F912F910F900FBE8F
S11301900F901F9018951F920F920FB60F92112473
S11301A02F933F934F935F936F937F938F939F937B
S11301B0AF93BF93EF93FF93E0916E00F0916F00C4
S11301C00995FF91EF91BF91AF919F918F917F918D
S11301D06F915F914F913F912F910F900FBE0F90B0
S11301E01F901895FC01DB0111968C9111978130B9
S11301F059F48C9180959181892381838C91809588
S11302009281892382830895823051F48C91809560
S11302109181892381838C919281892B8283089592
S11302208C919181892B81838C91809592818923F2
S113023082830895413029F4FC012281622B628378
S11302400895411105C06095FC01228162236283F7
S11302500895FC01628308951F920F920FB60F92C6
S113026011242F933F934F935F936F937F938F93B7
S11302709F93AF93BF93EF93FF93E0916000F0914E
S113028061000480F581E02D0995FF91EF91BF9104
S1130290AF919F918F917F916F915F914F913F911A
S11302A02F910F900FBE0F901F9018951F920F92D1
S11302B00FB60F9211242F933F934F935F936F9335
S11302C07F938F939F93AF93BF93EF93FF93E091AB
S11302D06200F09163000684F785E02D0995FF9193
S11302E0EF91BF91AF919F918F917F916F915F91AA
S11302F04F913F912F910F900FBE0F901F90189523
S11303001F920F920FB60F9211242F933F934F9386
S11303105F936F937F938F939F93AF93BF93EF9369
S1130320FF93E0916200F09163000088F189E02D71
S11303300995FF91EF91BF91AF919F918F917F911B
S11303406F915F914F913F912F910F900FBE0F903E
S11303501F9018951F920F920FB60F9211242F938E
S11303603F934F935F936F937F938F939F93AF9339
S1130370BF93EF93FF93E0916400F09165000780D1
S1130380F085E02D0995FF91EF91BF91AF919F9179
S11303908F917F916F915F914F913F912F910F902A
S11303A00FBE0F901F9018951F920F920FB60F92C9
S11303B011242F933F934F935F936F937F938F9366
S11303C09F93AF93BF93EF93FF93E0916600F091F7
S11303D067000084F185E02D0995FF91EF91BF91AD
S11303E0AF919F918F917F916F915F914F913F91C9
S11303F02F910F900FBE0F901F9018951F920F9280
S11304000FB60F9211242F933F934F935F936F93E3
S11304107F938F939F93AF93BF93EF93FF93E09159
S11304206600F09167000680F781E02D0995FF9141
S1130430EF91BF91AF919F918F917F916F915F9158
S11304404F913F912F910F900FBE0F901F901895D1
S11304501F920F920FB60F9211242F933F934F9335
S11304605F936F937F938F939F93AF93BF93EF9318
S1130470FF93E0917400F09175000995FF91EF915D
S1130480BF91AF919F918F917F916F915F914F91A8
S11304903F912F910F900FBE0F901F9018951F92B0
S11304A00F920FB60F9211242F933F934F935F93A4
S11304B06F937F938F939F93AF93BF93EF93FF9328
S11304C0E0917200F09173000995FF91EF91BF9153
S11304D0AF919F918F917F916F915F914F913F91D8
S11304E02F910F900FBE0F901F9018951F920F928F
S11304F00FB60F9211242F933F934F935F936F93F3
S11305007F938F939F93AF93BF93EF93FF93E09168
S11305107000F09171000995FF91EF91BF91AF9137
S11305209F918F917F916F915F914F913F912F9107
S11305300F900FBE0F901F901895CF93C82F682F60
S1130540607F86E390E00E94290140E062E083E35B
S113055090E00E941A0140E068E083E390E00E948A
S11305601A0141E064E083E390E00E941A0182E012
S11305708A95F1F700C040E064E083E390E00E94D4
S11305801A018FE891E00197F1F700C0000090E1B3
S1130590C99FB001112486E390E00E94290140E044
S11305A062E083E390E00E941A0140E068E083E3A4
S11305B090E00E941A0141E064E083E390E00E942D
S11305C01A0182E08A95F1F700C040E064E083E319
S11305D090E00E941A018FE99FE00197F1F700C0B3
S11305E00000CF910895EF92FF920F931F93CF9342
S11305F0DF9300D0CDB7DEB713E01A8381E089839F
S1130600BE016F5F7F4F86E390E00E94F2001A8381
S11306106894FF24F1F8F982BE016F5F7F4F86E38F
S113062090E00E94F2001A836894EE24E2F8E982D2
S1130630BE016F5F7F4F86E390E00E94F2001A8351
S113064008E00983BE016F5F7F4F86E390E00E945C
S1130650F2001A8380E18983BE016F5F7F4F86E3D6
S113066090E00E94F2001A8380E28983BE016F5FEA
S11306707F4F86E390E00E94F2001A8380E489832E
S1130680BE016F5F7F4F86E390E00E94F2001A8301
S113069080E88983BE016F5F7F4F86E390E00E940C
S11306A0F2001A83E982BE016F5F7F4F83E390E01B
S11306B00E94F2001A83F982BE016F5F7F4F83E3C9
S11306C090E00E94F2001A830983BE016F5F7F4F9E
S11306D083E390E00E94F2008FE39CE90197F1F735
S11306E000C0000082E00E949D0288E20E949D02F8
S11306F086E00E949D0280E80E949D028CE00E9498
S11307009D0281E00E949D028FE99FE00197F1F72D
S113071000C000000F900F90DF91CF911F910F91B7
S1130720FF90EF90089581E00E949D028FE99FE081
S11307300197F1F700C0000080E80E949D0208952F
S1130740811107C0603168F480E8860F0E949D0221
S11307500895813031F4603120F480EC860F0E94DA
S11307609D020895CF93C82F682F607F86E390E0A1
S11307700E94290141E062E083E390E00E941A01B3
S113078040E068E083E390E00E941A0141E064E005
S113079083E390E00E941A0182E08A95F1F700C099
S11307A040E064E083E390E00E941A018FE891E066
S11307B00197F1F700C0000090E1C99FB001112436
S11307C086E390E00E94290141E062E083E390E047
S11307D00E941A0140E068E083E390E00E941A015D
S11307E041E064E083E390E00E941A0182E08A958C
S11307F0F1F700C040E064E083E390E00E941A0156
S11308008FE99FE00197F1F700C00000CF910895B0
S11308100F931F93CF93DF938C01C0E0D0E021C0EE
S113082021960F5F1F4F0E94B203C031D10529F4F6
S113083060E081E00E94A00314C0C032D10589F4B5
S11308402FEF84E39CE0215080409040E1F700C00A
S113085000000E94930360E080E00E94A003C0E0D7
S1130860D0E0F80180818111DBCFDF91CF911F911E
S11308700F910895CF93DF9300D0CDB7DEB790E00A
S113088088309105E0F4FC01E65DFF4F0C94EB0623
S113089081E0898314C082E0898311C084E0898364
S11308A00EC088E089830BC080E1898308C080E2A0
S11308B0898305C080E4898302C080E8898381E05C
S11308C08A83BE016F5F7F4F89E390E00E94F2004C
S11308D080E090E020E4FC01208326E021830E9454
S11308E051000F900F90DF91CF9108950E946700FF
S11308F0BC0180E090E00E94F00520E030E040EA96
S11309005BE30E947E062AE037ED43E25CE30E944B
S11309104F0520E030E040E05FE30E94E3040E94E2
S1130920C105CB0108951F920F920FB60F921124A7
S11309308F939F93809168009091690001969093A2
S11309406900809368009F918F910F900FBE0F9064
S11309501F90189580E00E943A042FEF80E792E000
S1130960215080409040E1F700C000000E94F30253
S113097060E080E00E94A00380E00E9476049093EF
S11309808100809380004AE066E770E00E94F106EF
S113099086E790E00E940804809180009091810095
S11309A00A9730F70E94930386E790E00E940804B8
S11309B02FEF84E39CE0215080409040E1F700C099
S11309C00000D6CF5058BB27AA270E94FA040C94E3
S11309D044060E94360638F00E943D0620F039F4A1
S11309E09F3F19F426F40C9433060EF4E095E7FBCC
S11309F00C942D06E92F0E94550658F3BA17620786
S1130A0073078407950720F079F4A6F50C9477060C
S1130A100EF4E0950B2EBA2FA02D0B01B901900115
S1130A200C01CA01A0011124FF27591B99F0593F59
S1130A3050F4503E68F11A16F040A22F232F342FA1
S1130A404427585FF3CF469537952795A795F040EF
S1130A505395C9F77EF41F16BA0B620B730B840B04
S1130A60BAF09150A1F0FF0FBB1F661F771F881FBC
S1130A70C2F70EC0BA0F621F731F841F48F4879514
S1130A8077956795B795F7959E3F08F0B0CF939506
S1130A90880F08F09927EE0F9795879508950E947F
S1130AA063050C9444060E943D0658F00E943606E5
S1130AB040F029F45F3F29F00C942D0651110C9459
S1130AC078060C9433060E94550668F39923B1F313
S1130AD0552391F3951B550BBB27AA276217730760
S1130AE0840738F09F5F5F4F220F331F441FAA1FF4
S1130AF0A9F335D00E2E3AF0E0E832D091505040B0
S1130B00E695001CCAF72BD0FE2F29D0660F771F5D
S1130B10881FBB1F261737074807AB07B0E809F043
S1130B20BB0B802DBF01FF2793585F4F3AF09E3FC8
S1130B30510578F00C942D060C9478065F3FE4F38D
S1130B40983ED4F3869577956795B795F7959F5F0B
S1130B50C9F7880F911D9695879597F90895E1E057
S1130B60660F771F881FBB1F621773078407BA07B6
S1130B7020F0621B730B840BBA0BEE1F88F7E09511
S1130B8008950E945D0688F09F5798F0B92F992721
S1130B90B751B0F0E1F0660F771F881F991F1AF064
S1130BA0BA95C9F714C0B13091F00E947706B1E04C
S1130BB008950C947706672F782F8827B85F39F04B
S1130BC0B93FCCF3869577956795B395D9F73EF4FD
S1130BD090958095709561957F4F8F4F9F4F0895A5
S1130BE0E89409C097FB3EF49095809570956195C3
S1130BF07F4F8F4F9F4F9923A9F0F92F96E9BB2779
S1130C009395F695879577956795B795F111F8CFF4
S1130C10FAF4BB0F11F460FF1BC06F5F7F4F8F4F5F
S1130C209F4F16C0882311F096E911C0772321F055
S1130C309EE8872F762F05C0662371F096E8862FED
S1130C4070E060E02AF09A95660F771F881FDAF744
S1130C50880F9695879597F9089597F99F6780E887
S1130C6070E060E008959FEF80EC089500240A94FA
S1130C701616170618060906089500240A94121673
S1130C801306140605060895092E0394000C11F4A6
S1130C90882352F0BB0F40F4BF2B11F460FF04C053
S1130CA06F5F7F4F8F4F9F4F089557FD9058440FAC
S1130CB0551F59F05F3F71F04795880F97FB991FB7
S1130CC061F09F3F79F08795089512161306140674
S1130CD0551FF2CF4695F1DF08C016161706180601
S1130CE0991FF1CF86957105610508940895E894DC
S1130CF0BB2766277727CB0197F908950E949106B1
S1130D000C9444060E94360638F00E943D0620F0FA
S1130D10952311F00C942D060C94330611240C9495
S1130D2078060E94550670F3959FC1F3950F50E025
S1130D30551F629FF001729FBB27F00DB11D639F89
S1130D40AA27F00DB11DAA1F649F6627B00DA11D2F
S1130D50661F829F2227B00DA11D621F739FB00DD5
S1130D60A11D621F839FA00D611D221F749F332745
S1130D70A00D611D231F849F600D211D822F762FDE
S1130D806A2F11249F5750409AF0F1F088234AF0BB
S1130D90EE0FFF1FBB1F661F771F881F9150504027
S1130DA0A9F79E3F510580F00C942D060C9478060B
S1130DB05F3FE4F3983ED4F3869577956795B795AE
S1130DC0F795E7959F5FC1F7FE2B880F911D9695C8
S1130DD0879597F90895EE0FFF1F0590F491E02D84
S1130DE00994BB274A3031F4992322F4BDE290954B
S1130DF081959F4F0C94FD06BB27FB015527AA271D
S1130E00880F991FAA1FA41710F0A41B8395505193
S1130E10B9F7A05DAA3308F0A95DA193009779F70B
S1130E20B111B1931192CB010C941607DC01FC01B2
S1130E30672F71917723E1F7329704C07C916D930A
S1130E4070836291AE17BF07C8F30895F894FFCF7B
S9030000FC
