:100000000C942A000C9408010C942F010C945601B6
:100010000C9447000C9447000C9447000C94470044
:100020000C9447000C9447000C9447000C94470034
:100030000C9447000C9447000C9447000C94470024
:100040000C9447000C9447000C9447000C94470014
:100050000C94470011241FBECFE5D8E0DEBFCDBF12
:1000600010E0A0E6B0E0ECE7F6E002C005900D92EB
:10007000AE37B107D9F720E0AEE7B0E001C01D927E
:10008000A438B207E1F70E942B030C943C030C94B4
:1000900000000F931F93CF93DF9300D0CDB7DEB74F
:1000A0008C01DC018C9181113BC084E0898381E06B
:1000B0008A83BE016F5F7F4F80E390E00E947D01E5
:1000C00085B78C7F85BFF8019181913019F48360E9
:1000D00085BF07C0911103C0826085BF02C08160E7
:1000E00085BFD801EC91F0E013968D919C91149707
:1000F000EE0FFF1FE258FF4F9183808312968C9181
:10010000813039F48FB780688FBF8BB780648BBF25
:1001100078C08FB78F778FBF8BB78F7B8BBF71C046
:100120008130D9F588E0898381E08A83BE016F5FE1
:100130007F4F80E390E00E947D0185B7837F85BF7C
:10014000F8019181913019F48C6085BF07C091113D
:1001500003C0886085BF02C0846085BFD801EC9170
:10016000F0E013968D919C911497EE0FFF1FE258CB
:10017000FF4F9183808312968C91813039F48FB731
:1001800080688FBF8BB780688BBF3BC08FB78F777E
:100190008FBF8BB78F778BBF34C084E0898381E0BA
:1001A0008A83BE016F5F7F4F86E390E00E947D01EE
:1001B00084B78F7B84BFF8019181913021F0911138
:1001C00002C0806484BFD801EC91F0E013968D9159
:1001D0009C911497EE0FFF1FE258FF4F918380838D
:1001E00012968C91813039F48FB780688FBF8BB7AE
:1001F00080628BBF06C08FB78F778FBF8BB78F7D25
:100200008BBF0F900F90DF91CF911F910F910895A9
:100210001F920F920FB60F9211242F933F934F937B
:100220005F936F937F938F939F93AF93BF93EF935E
:10023000FF93E0917E00F0917F000995FF91EF918F
:10024000BF91AF919F918F917F916F915F914F91EE
:100250003F912F910F900FBE0F901F9018951F92F6
:100260000F920FB60F9211242F933F934F935F93EA
:100270006F937F938F939F93AF93BF93EF93FF936E
:10028000E0918000F09181000995FF91EF91BF917D
:10029000AF919F918F917F916F915F914F913F911E
:1002A0002F910F900FBE0F901F9018951F920F92D5
:1002B0000FB60F9211242F933F934F935F936F9339
:1002C0007F938F939F93AF93BF93EF93FF93E091AF
:1002D0008200F09183000995FF91EF91BF91AF915A
:1002E0009F918F917F916F915F914F913F912F914E
:1002F0000F900FBE0F901F901895FC01DB01119617
:100300008C911197813059F48C918095918189233A
:1003100081838C9180959281892382830895823094
:1003200051F48C9180959181892381838C91928164
:10033000892B828308958C919181892B81838C9163
:1003400080959281892382830895413029F4FC01AC
:100350002281622B62830895411105C06095FC01E2
:100360002281622362830895FC0162830895682FCD
:1003700089E390E00E94B40140E062E086E390E00F
:100380000E94A50140E068E086E390E00E94A5019C
:1003900041E064E086E390E00E94A50185E08A9553
:1003A000F1F7000040E064E086E390E00E94A501E0
:1003B0008FE193E00197F1F700C000000895EF92FC
:1003C000FF920F931F93CF93DF9300D0CDB7DEB78B
:1003D00013E01A8381E08983BE016F5F7F4F89E359
:1003E00090E00E947D011A836894FF24F1F8F9825D
:1003F000BE016F5F7F4F89E390E00E947D011A8309
:100400006894EE24E2F8E982BE016F5F7F4F89E3D2
:1004100090E00E947D011A8308E00983BE016F5FAE
:100420007F4F89E390E00E947D011A8380E18983F8
:10043000BE016F5F7F4F89E390E00E947D011A83C8
:1004400080E28983BE016F5F7F4F89E390E00E9465
:100450007D011A8380E48983BE016F5F7F4F89E34A
:1004600090E00E947D011A8380E88983BE016F5F5E
:100470007F4F89E390E00E947D011A83E982BE01EB
:100480006F5F7F4F86E390E00E947D011A83F982BF
:10049000BE016F5F7F4F86E390E00E947D011A836B
:1004A0000983BE016F5F7F4F86E390E00E947D016C
:1004B0002FEF89EF90E0215080409040E1F700C09D
:1004C000000088E30E94B7018CE00E94B70186E03B
:1004D0000E94B70181E00E94B7018FE39FE101977D
:1004E000F1F700C000000F900F90DF91CF911F91A6
:1004F0000F91FF90EF90089581E00E94B7018FE384
:100500009FE10197F1F700C0000080E80E94B70169
:100510000895811107C0603168F480E8860F0E9459
:10052000B7010895813031F4603120F480EC860FFA
:100530000E94B7010895682F89E390E00E94B401FA
:1005400041E062E086E390E00E94A50140E068E0BF
:1005500086E390E00E94A50141E064E086E390E03C
:100560000E94A50185E08A95F1F7000040E064E073
:1005700086E390E00E94A5018FE39FE10197F1F7E8
:1005800000C0000008950F931F93CF93DF938C0159
:10059000C0E0D0E021C021960F5F1F4F0E949B0258
:1005A000C031D10529F460E081E00E94890214C0C5
:1005B000C032D10589F42FEF89E698E121508040BF
:1005C0009040E1F700C000000E947C0260E080E003
:1005D0000E948902C0E0D0E0F80180818111DBCF68
:1005E000DF91CF911F910F91089581E090E090935A
:1005F00061008093600082E690E00E94C30281EC7B
:100600000E94B70182E790E00E94C3022FEF83EDC2
:1006100090E3215080409040E1F700C00000089531
:10062000CF93DF9300D000D01F92CDB7DEB71982F1
:1006300081E08A8325EF32E03D832C838B83CE01DA
:1006400001960E9449000F900F900F900F900F900D
:10065000DF91CF9108950E94DF010E9410038091E5
:100660006000909161000197D1F70E947C02109286
:0C067000610010926000F3CFF894FFCFFF
:10067C000100204C6561726E202D20496E202D20CA
:0E068C0020002020202044657074682020008B
:00000001FF
