:100000000C942A000C9434000C9434000C943400AA
:100010000C9434000C9434000C9434000C94340090
:100020000C9434000C9434000C9434000C94340080
:100030000C9434000C9434000C9434000C94340070
:100040000C9434000C9434000C9434000C94340060
:100050000C94340011241FBECFE5D8E0DEBFCDBF25
:100060000E9448000C945C000C94000087B38F7BC6
:1000700087BB87B3806B87BB8DB181618DB98DB133
:1000800080648DB908958FB9779BFECF8FB10895A5
:100090008FEF8ABB0E943600C0E02FE38DE093E033
:1000A000215080409040E1F700C000008C2F0E945A
:0C00B00043008BBBCF5FF1CFF894FFCF73
:00000001FF
