:100000000C9434000C9448000C946F000C949600EF
:100010000C9446000C9446000C9446000C94460048
:100020000C9446000C9446000C9446000C94460038
:100030000C94B5010C94DF010C9406020C942D0273
:100040000C9446000C9446000C9446000C948B01D2
:100050000C944600200125012B0143013101370199
:100060004F013D015501490111241FBECFE5D8E0E4
:10007000DEBFCDBF20E0A0E6B0E001C01D92A137F9
:10008000B207E1F70E94B9020C94F7020C94000049
:100090001F920F920FB60F9211242F933F934F93FD
:1000A0005F936F937F938F939F93AF93BF93EF93E0
:1000B000FF93E0916500F09166000995FF91EF9143
:1000C000BF91AF919F918F917F916F915F914F9170
:1000D0003F912F910F900FBE0F901F9018951F9278
:1000E0000F920FB60F9211242F933F934F935F936C
:1000F0006F937F938F939F93AF93BF93EF93FF93F0
:10010000E0916700F09168000995FF91EF91BF9130
:10011000AF919F918F917F916F915F914F913F919F
:100120002F910F900FBE0F901F9018951F920F9256
:100130000FB60F9211242F933F934F935F936F93BA
:100140007F938F939F93AF93BF93EF93FF93E09130
:100150006900F0916A000995FF91EF91BF91AF910D
:100160009F918F917F916F915F914F913F912F91CF
:100170000F900FBE0F901F901895FC01DB01119698
:100180008C911197813059F48C91809591818923BC
:1001900081838C9180959281892382830895823016
:1001A00051F48C9180959181892381838C919281E6
:1001B000892B828308958C919181892B81838C91E5
:1001C00080959281892382830895FC019093610038
:1001D00080936000808182B9838181B9828181307E
:1001E00039F496B7892B86BF8FB780688FBF06C05A
:1001F00096B7892386BF8FB78F778FBF218130E075
:1002000040E050E060E072E18AE790E00E94CF02B7
:10021000DA01C9014097A109B109B695A79597954B
:10022000879580B986B7846486BF089590E08A3048
:10023000910508F053C0FC01E65DFF4F0C94F102FC
:1002400006B607FE38C021E049C081B1887F8830FA
:10025000A1F121E043C081B1887F883181F121E0A3
:100260003DC081B1887F883261F121E037C081B122
:10027000887F803641F121E031C081B1887F8038AC
:1002800021F121E02BC081B1887F803401F121E090
:1002900025C081B1887F8035E1F021E01FC081B1A8
:1002A000887F883AC1F021E019C081B1887F883BFE
:1002B000A1F021E013C020E011C020E00FC020E039
:1002C0000DC020E00BC020E009C020E007C020E006
:1002D00005C020E003C020E001C020E0822F089587
:1002E000CF93C82F80E00E9416018823D9F386E0BF
:1002F0000E941601C3B986B7806886BF80E00E945D
:1003000016018823D9F388E00E94160186B7806819
:1003100086BFCF9108951F920F920FB60F921124AE
:100320002F933F934F935F936F937F938F939F93FD
:10033000AF93BF93EF93FF93E0916000F091610062
:100340000480F581E02D0995FF91EF91BF91AF9168
:100350009F918F917F916F915F914F913F912F91DD
:100360000F900FBE0F901F9018951F920F920FB60F
:100370000F9211242F933F934F935F936F937F932B
:100380008F939F93AF93BF93EF93FF93E09162009E
:10039000F09163000780F085E02D0995FF91EF91C2
:1003A000BF91AF919F918F917F916F915F914F918D
:1003B0003F912F910F900FBE0F901F9018951F9295
:1003C0000F920FB60F9211242F933F934F935F9389
:1003D0006F937F938F939F93AF93BF93EF93FF930D
:1003E000E0916F00F09170000995FF91EF91BF913E
:1003F000AF919F918F917F916F915F914F913F91BD
:100400002F910F900FBE0F901F9018951F920F9273
:100410000FB60F9211242F933F934F935F936F93D7
:100420007F938F939F93AF93BF93EF93FF93E0914D
:100430006D00F0916E000995FF91EF91BF91AF9122
:100440009F918F917F916F915F914F913F912F91EC
:100450000F900FBE0F901F9018951F920F920FB61E
:100460000F9211242F933F934F935F936F937F933A
:100470008F939F93AF93BF93EF93FF93E0916B00A4
:10048000F0916C000995FF91EF91BF91AF919F9111
:100490008F917F916F915F914F913F912F910F902D
:1004A0000FBE0F901F901895809164008F5F80930E
:1004B00064000E94700108951F93CF93DF9300D0D2
:1004C000CDB7DEB713E01A8381E08983BE016F5F89
:1004D0007F4F89E390E00E94BD001A8382E0898308
:1004E000BE016F5F7F4F89E390E00E94BD001A83D9
:1004F00084E08983BE016F5F7F4F89E390E00E94B3
:10050000BD001A8388E08983BE016F5F7F4F89E356
:1005100090E00E94BD001A8380E18983BE016F5F75
:100520007F4F89E390E00E94BD001A8380E28983B7
:10053000BE016F5F7F4F89E390E00E94BD001A8388
:1005400080E48983BE016F5F7F4F89E390E00E9462
:10055000BD001A8380E88983BE016F5F7F4F89E306
:1005600090E00E94BD000F900F90DF91CF911F91FE
:100570000895CF93DF9300D000D000D0CDB7DEB781
:1005800081E08B8384E592E09E838D8380ED898377
:10059000CE0101960E94E5000E945C02FFCFA1E21D
:1005A0001A2EAA1BBB1BFD010DC0AA1FBB1FEE1FED
:1005B000FF1FA217B307E407F50720F0A21BB30B38
:1005C000E40BF50B661F771F881F991F1A9469F7B4
:1005D00060957095809590959B01AC01BD01CF0110
:1005E0000895EE0FFF1F0590F491E02D0994F89403
:0205F000FFCF3B
:00000001FF
