:020000040800F2
:100000000028002041020008910200089102000827
:10001000910200089102000891020008000000000F
:100020000000000000000000000000009102000835
:1000300091020008000000009102000891020008EF
:100040009102000891020008910200089102000844
:100050009102000891020008110600083506000808
:10006000590600087D060008A10600089102000854
:100070009102000891020008910200089102000814
:100080009102000891020008910200089102000804
:10009000910200089102000891020008C5060008BC
:1000A00091020008910200089102000891020008E4
:1000B000910200089102000891020008F10A00086C
:1000C000910200089102000891020008D90B000873
:1000D000350C0008910C0008A50C0008B90C0008AC
:1000E0006D0700089102000800000000910200085E
:1000F0009102000891020008910200089102000894
:100100009102000891020008910200089102000883
:100110009102000891020008910200089102000873
:100120009102000891020008910200089102000863
:1001300010B5054C237833B9044B13B10448AFF321
:1001400000800123237010BD00000020000000008B
:10015000140D000808B5034B1BB103490348AFF366
:10016000008008BD0000000004000020140D0008FD
:1001700080B400AF194B9B69184A43F004039361A4
:10018000164B9B69154A43F008039361134B9B6917
:10019000124A43F010039361104B9B690F4A43F0DE
:1001A000010393610D4BDB690C4A43F00103D361FA
:1001B0000A4BDB69094A43F00203D361074BDB6951
:1001C000064A43F00403D361044B9B69034A43F49A
:1001D0000073936100BFBD4680BC704700100240B1
:1001E00080B500AF0121024800F004FC00BF80BDD3
:1001F0000008014080B586B000AFFFF7B9FF0D4A97
:100200003B1D07CA83E8070000233B740A4B7B6150
:1002100001237B743B1D184600F0EEF90423BB70EC
:100220000123FB7001233B803B461946034800F045
:1002300062FBFEE72C0D0008E10100080008014008
:100240000D488546AFF300800C480D490D4A002348
:1002500002E0D458C4500433C4188C42F9D30A4A7B
:100260000A4C002301E013600432A242FBD300F0E9
:100270002DFDFFF7BFFFFEE7002800200000002053
:1002800000000020400D000800000020A400002015
:10029000FEE7000080B483B000AF0346FB80FB881C
:1002A0000F2B54D801A252F823F000BFED02000832
:1002B000FB020008090300081703000825030008D3
:1002C0003303000833030008330300083303000836
:1002D00033030008410300084103000841030008FC
:1002E0004103000841030008410300081A4B1B6842
:1002F000194A43F04003136029E0174B1B68164A64
:1003000043F08003136022E0134B1B68124A43F44E
:10031000807313601BE0104B1B680F4A43F400739B
:10032000136014E00C4B1B680B4A43F480631360AA
:100330000DE0094B1B68084A43F40003136006E014
:10034000064B1B68054A43F48073136000BF00BF6F
:100350000C37BD4680BC704700E100E004E100E0DE
:1003600080B483B000AF0346FB80FB880F2B54D8CA
:1003700001A252F823F000BFB9030008C703000828
:10038000D5030008E3030008F1030008FF03000899
:10039000FF030008FF030008FF030008FF03000835
:1003A0000D0400080D0400080D0400080D040008E9
:1003B0000D0400080D0400081A4B1B68194A43F08D
:1003C0004003136029E0174B1B68164A43F0800373
:1003D000136022E0134B1B68124A43F480731360CE
:1003E0001BE0104B1B680F4A43F40073136014E0CA
:1003F0000C4B1B680B4A43F4806313600DE0094B00
:100400001B68084A43F40003136006E0064B1B68B0
:10041000054A43F48073136000BF00BF0C37BD462C
:1004200080BC704780E100E084E100E080B584B0EA
:1004300000AF78607B681B893B810823BB727B68B7
:100440005B6807F108021146184600F054FA7B6811
:100450001B889B089BB2FB737B681B88DBB203F095
:100460000303DBB29B00BB735D4AFB7B023352F894
:100470002320BB7B0F2101FA03F3DB4318465849C5
:10048000FB7B0240023341F82320554AFB7B0233B9
:1004900052F823207B685B6852498B4216D07B68F8
:1004A0005B6851498B420FD07B685B684F498B4238
:1004B00008D07B685B684B498B4201D1032306E07F
:1004C000002304E0022302E0012300E00023B97BC3
:1004D0008B4018464249FB7B0243023341F82320FC
:1004E000434B9B687A681288114601228A40D243A6
:1004F00011463F4A0B4093603D4BDB687A68128897
:10050000114601228A40D2431146394A0B40D3603A
:100510007B681B7B002B0BD1354B9B687A6812885C
:10052000114601228A401146314A0B43936025E06F
:100530007B681B7B012B0BD12D4BDB687A68128803
:10054000114601228A401146294A0B43D36015E027
:10055000274B9B687A681288114601228A4011460F
:10056000234A0B439360224BDB687A68128811465A
:1005700001228A4011461E4A0B43D3607B681B88C8
:1005800019467B681B691B4A42F821307B685B7BFC
:10059000012B10D1164B1B687A6812881146012274
:1005A0008A401146124A0B4313607B681B88184629
:1005B000FFF770FE10E00E4B1B687A681288114638
:1005C00001228A40D2431146094A0B4013607B68DE
:1005D0001B881846FFF7C4FE00BF1037BD4680BD1C
:1005E0000000014000080140000C014000100140E3
:1005F000000401406800002080B582B000AF786040
:100600007868FFF713FF00BF0837BD4680BD0000C4
:1006100080B500AF054B5B69044A43F001035361A9
:10062000034B1B68984700BF80BD00BF000401401A
:100630006800002080B500AF054B5B69044A43F0B9
:1006400002035361034B5B68984700BF80BD00BF46
:10065000000401406800002080B500AF054B5B69D5
:10066000044A43F004035361034B9B68984700BF5F
:1006700080BD00BF000401406800002080B500AFCD
:10068000054B5B69044A43F008035361034BDB6885
:10069000984700BF80BD00BF0004014068000020F3
:1006A00080B500AF054B5B69044A43F0100353610A
:1006B000034B1B69984700BF80BD00BF0004014089
:1006C0006800002080B500AF264B5B6903F0200373
:1006D000002B08D0234B5B69224A43F0200353616F
:1006E000214B5B6998471F4B5B6903F04003002B6C
:1006F00008D01C4B5B691B4A43F0400353611A4B03
:100700009B699847174B5B6903F08003002B08D067
:10071000144B5B69134A43F080035361124BDB694E
:100720009847104B5B6903F48073002B08D00D4B86
:100730005B690C4A43F4807353610B4B1B6A984707
:10074000084B5B6903F40073002B08D0054B5B6911
:10075000044A43F400735361034B5B6A984700BF3C
:1007600080BD00BF000401406800002080B500AFDC
:100770002D4B5B6903F48063002B08D02A4B5B6927
:10078000294A43F480635361284B9B6A9847264B60
:100790005B6903F40063002B08D0234B5B69224A9A
:1007A00043F400635361214BDB6A98471E4B5B693E
:1007B00003F48053002B08D01B4B5B691A4A43F4A7
:1007C00080535361194B1B6B9847174B5B6903F4BC
:1007D0000053002B08D0144B5B69134A43F40053B9
:1007E0005361124B5B6B98470F4B5B6903F480437B
:1007F000002B08D00C4B5B690B4A43F480435361D8
:100800000A4B9B6B9847084B5B6903F40043002B32
:1008100008D0054B5B69044A43F400435361034B22
:10082000DB6B984700BF80BD0004014068000020DA
:1008300080B483B000AF0346FB80FB88802B42D09E
:10084000802B11DC082B36D0082B06DC022B2ED097
:10085000042B2ED0012B28D047E0202B2FD0402B6B
:100860002FD0102B29D040E0B3F5006F33D0B3F573
:10087000006F09DCB3F5007F29D0B3F5806F28D075
:10088000B3F5807F21D030E0B3F5005F27D0B3F51A
:10089000005F03DCB3F5805F1FD026E0B3F5804F27
:1008A0001FD0B3F5004F1ED01FE000231EE004232D
:1008B0001CE008231AE00C2318E0102316E0142390
:1008C00014E0182312E01C2310E000230EE00423A0
:1008D0000CE008230AE00C2308E0102306E01423B0
:1008E00004E0182302E01C2300E0002318460C3724
:1008F000BD4680BC704790B585B000AF7860396068
:100900000023BB600023FB733B681B88FF2B01D8CF
:100910007B6801E07B680433BB603B681B8818463A
:10092000FFF786FF03461A460F239340DA43BB685E
:100930001B681A40BB681A603B689B78072B0BD07A
:100940003B689B78062B07D03B689B78052B03D030
:100950003B689B78042B0ED13B689B78043B9B0043
:100960005AB23B68DB785BB213435BB2DBB203F095
:100970000F03FB732CE03B689B78012B03D03B6893
:100980009B78002B07D13B689B789B00DBB203F080
:100990000F03FB731CE03B689B78082B02D10423F8
:1009A000FB7315E00823FB733B689B78022B07D190
:1009B0007B68DB683A6812881A437B68DA6007E074
:1009C0007B68DB683A681288D2431A407B68DA6039
:1009D000FC7B3B681B881846FFF72AFF034604FA96
:1009E00003F2BB681B681A43BB681A6000BF143768
:1009F000BD4690BD80B483B000AF78600B467B806D
:100A00007B68DA687B885A407B68DA6000BF0C3705
:100A1000BD4680BC7047000080B584B000AF7860F0
:100A20000B46FB707B68304A934214BF01230023BE
:100A3000DBB2FB73FB78032B51D801A252F823F0F1
:100A4000510A0008750A00088D0A0008B10A00085A
:100A50007B689B6903F00403002B3BD0FA7B23499E
:100A60001346DB009B1A9B000B4418331B680020C5
:100A700098472FE0FA7B1D491346DB009B1A9B0029
:100A80000B4418331B680120984728E07B689B695A
:100A900003F00403002B1FD0FA7B14491346DB003C
:100AA0009B1A9B000B4418331B680220984713E0E5
:100AB0007B689B6903F00403002B0FD1FA7B0B4981
:100AC0001346DB009B1A9B000B4418331B68032062
:100AD000984703E000BF02E000BF00E000BF00BF96
:100AE0001037BD4680BD00BF005400401C000020F0
:100AF00080B584B000AF00233B60364B5B6903F0E8
:100B00001003FB60334B5B6803F40073BB60314B35
:100B10005B6803F480637B60BB68002B0AD0FB68D2
:100B2000002B07D02B4B2B4A1B6813600021294850
:100B3000FFF772FF274B5B6903F00203FB60BB68A2
:100B4000002B12D0FB68002B0FD0224B9B6903F0C7
:100B50000103002B09D11F4B5B693B601D4B9B6957
:100B60003B6001211B48FFF757FF1A4B5B6903F0FD
:100B70008003FB60BB68002B0FD07B68002B0CD080
:100B8000FB68002B09D0134B9B6903F00103002B7A
:100B900003D102210F48FFF73FFF0E4B5B6903F0C3
:100BA0004003FB60BB68002B0FD07B68002B0CD090
:100BB000FB68002B09D0074B9B6903F00103002B56
:100BC00003D103210348FFF727FF00BF1037BD46BD
:100BD00080BD00BF0054004080B582B000AF134B11
:100BE0009B685B0803F00103DAB23B7962F3000310
:100BF0003B710E4B9B6803F00103DAB23B7962F361
:100C000041033B71094B9B681B0903F00103DAB2F6
:100C10003B7962F382033B71054B1B689B69387912
:100C2000984700BF0837BD4680BD00BF0030014077
:100C30005400002080B582B000AF134B9B685B0866
:100C400003F00103DAB23B7962F300033B710E4B10
:100C50009B6803F00103DAB23B7962F341033B7115
:100C6000094B9B681B0903F00103DAB23B7962F37D
:100C700082033B71054B5B689B693879984700BFDD
:100C80000837BD4680BD00BF00380040540000203A
:100C900080B500AF024B1B68DB68984700BF80BD82
:100CA0005C00002080B500AF024B5B68DB689847B2
:100CB00000BF80BD5C00002080B500AF024B9B6888
:100CC000DB68984700BF80BD5C00002070B5002540
:100CD0000C4E0D4CA41BA410A54209D100F01AF82B
:100CE00000250A4E0A4CA41BA410A54205D170BDD4
:100CF00056F8253098470135EEE756F825309847E5
:100D00000135F2E7380D0008380D0008380D0008ED
:100D10003C0D0008F8B500BFF8BC08BC9E46704703
:0C0D2000F8B500BFF8BC08BC9E46704748
:0C0D2C0009000000000C0140000217004C
:040D38005501000859
:040D3C003101000879
:0400000508000241AC
:00000001FF
