S018000041746D65676133325F447269766572732E737265631A
S11300000C942A000C9449000C9470000C949700F2
S11300100C9447000C9447000C9447000C94150171
S11300200C943F010C94AD020C94E4010C940E0268
S11300300C9469010C9438020C945F020C948602AF
S11300400C9447000C9447000C9447000C94EB006C
S11300500C94470011241FBECFE5D8E0DEBFCDBF0E
S113006010E0A0E6B0E0E8EDF5E002C005900D92E6
S1130070A036B107D9F720E0A0E6B0E001C01D9298
S1130080A637B207E1F70E94CA020C94EA020C9464
S113009000001F920F920FB60F9211242F933F93DB
S11300A04F935F936F937F938F939F93AF93BF937C
S11300B0EF93FF93E0916A00F0916B000995FF9133
S11300C0EF91BF91AF919F918F917F916F915F91CC
S11300D04F913F912F910F900FBE0F901F90189545
S11300E01F920F920FB60F9211242F933F934F93A9
S11300F05F936F937F938F939F93AF93BF93EF938C
S1130100FF93E0916C00F0916D000995FF91EF91E0
S1130110BF91AF919F918F917F916F915F914F911B
S11301203F912F910F900FBE0F901F9018951F9223
S11301300F920FB60F9211242F933F934F935F9317
S11301406F937F938F939F93AF93BF93EF93FF939B
S1130150E0916E00F0916F000995FF91EF91BF91CE
S1130160AF919F918F917F916F915F914F913F914B
S11301702F910F900FBE0F901F901895FC01DB017B
S113018011968C911197813059F48C9180959181BD
S1130190892381838C918095928189238283089518
S11301A0823051F48C9180959181892381838C9143
S11301B09281892B828308958C919181892B8183EB
S11301C08C9180959281892382830895FC012281F8
S11301D06227628308951F920F920FB60F92112423
S11301E02F933F934F935F936F937F938F939F933B
S11301F0AF93BF93EF93FF93E0916000F0916100A0
S11302000480F581E02D0995FF91EF91BF91AF91A5
S11302109F918F917F916F915F914F913F912F911A
S11302200F900FBE0F901F9018951F920F920FB64C
S11302300F9211242F933F934F935F936F937F9368
S11302408F939F93AF93BF93EF93FF93E0916200DB
S1130250F09163000684F785E02D0995FF91EF91F5
S1130260BF91AF919F918F917F916F915F914F91CA
S11302703F912F910F900FBE0F901F9018951F92D2
S11302800F920FB60F9211242F933F934F935F93C6
S11302906F937F938F939F93AF93BF93EF93FF934A
S11302A0E0916200F09163000088F189E02D0995E6
S11302B0FF91EF91BF91AF919F918F917F916F913A
S11302C05F914F913F912F910F900FBE0F901F9010
S11302D018951F920F920FB60F9211242F933F93EC
S11302E04F935F936F937F938F939F93AF93BF933A
S11302F0EF93FF93E0916400F09165000780F0852F
S1130300E02D0995FF91EF91BF91AF919F918F914E
S11303107F916F915F914F913F912F910F900FBEFD
S11303200F901F901895FF920F931F93CF93DF9315
S113033000D0CDB7DEB78C01909367008093660040
S1130340FC01F0808281F82A8181882361F0F82AF7
S113035088E0898383E08A83BE016F5F7F4F86E3F1
S113036090E00E94BE00F80194818381892B9581DD
S11303709CBF9481913039F499B7916099BF9FB72C
S113038090689FBF06C099B79E7F99BF9FB79F771C
S11303909FBFF8019381913039F499B7926099BF66
S11303A09FB790689FBF06C099B79D7F99BF9FB7BD
S11303B09F779FBFF3BE89BF0F900F90DF91CF91BE
S11303C01F910F91FF9008951F920F920FB60F92F5
S11303D011242F933F934F935F936F937F938F9346
S11303E09F93AF93BF93EF93FF93E0916600F091D7
S11303F067000084F185E02D0995FF91EF91BF918D
S1130400AF919F918F917F916F915F914F913F91A8
S11304102F910F900FBE0F901F9018951F920F925F
S11304200FB60F9211242F933F934F935F936F93C3
S11304307F938F939F93AF93BF93EF93FF93E09139
S11304406600F09167000680F781E02D0995FF9121
S1130450EF91BF91AF919F918F917F916F915F9138
S11304604F913F912F910F900FBE0F901F901895B1
S11304701F920F920FB60F9211242F933F934F9315
S11304805F936F937F938F939F93AF93BF93EF93F8
S1130490FF93E0917400F09175000995FF91EF913D
S11304A0BF91AF919F918F917F916F915F914F9188
S11304B03F912F910F900FBE0F901F9018951F9290
S11304C00F920FB60F9211242F933F934F935F9384
S11304D06F937F938F939F93AF93BF93EF93FF9308
S11304E0E0917200F09173000995FF91EF91BF9133
S11304F0AF919F918F917F916F915F914F913F91B8
S11305002F910F900FBE0F901F9018951F920F926E
S11305100FB60F9211242F933F934F935F936F93D2
S11305207F938F939F93AF93BF93EF93FF93E09148
S11305307000F09171000995FF91EF91BF91AF9117
S11305409F918F917F916F915F914F913F912F91E7
S11305500F900FBE0F901F9018951F920F920FB619
S11305600F9211248F939F9380916800909169005A
S1130570019690936900809368009F918F910F90EA
S11305800FBE0F901F90189561E089E390E00E94E0
S1130590E6000895CF93DF93CDB7DEB72A970FB661
S11305A0F894DEBF0FBECDBF85E08B838FEF8E83C3
S11305B01C8280E18A831A86198684EC92E09887EB
S11305C08F8380E4898381E08D83CE0101960E942C
S10B05D09301FFCFF894FFCF63
S9030000FC
