S01900004C43445F4B65797061645F4472697665722E73726563B0
S11300000C942A000C943F000C943F000C943F0085
S11300100C943F000C943F000C943F000C943F0060
S11300200C943F000C943F000C943F000C943F0050
S11300300C943F000C943F000C943F000C943F0040
S11300400C943F000C943F000C943F000C943F0030
S11300500C943F0011241FBECFE5D8E0DEBFCDBF16
S113006010E0A0E6B0E0E0E6F2E002C005900D92F8
S1130070A038B107D9F70E941D010C942E010C94ED
S1130080000080EF81BB8FEF82BB089540E050E019
S113009043C082B3806F82BB22B3FA01EE0FFF1F0D
S11300A0E05AFF4F81E090E0008002C0880F991F62
S11300B00A94E2F78095822382BB20E030E027C0D7
S11300C080B3F901EE0FFF1FE859FF4F608190E004
S11300D0062E02C0959587950A94E2F780FD15C017
S11300E080B390E0062E02C0959587950A94E2F7B6
S11300F080FFF6CF220F331F220F331F20593F4FAB
S1130100F901E40FF51F808108952F5F3F4F2430DC
S11301103105B4F24F5F5F4F443051050CF4B9CF51
S11301208EE608959BB39F70282F207F922B9BBB54
S113013098B3977F98BB98B39D7F98BB98B394600E
S113014098BB000098B39B7F98BB32E43A95F1F7D3
S113015000C02BB330E1839FC0011124922F9F7004
S1130160892B8BBB88B3846088BB000088B38B7FEA
S113017088BB83EF91E00197F1F700C00000089578
S11301808FEF87BB8ABB87E893E10197F1F700C043
S1130190000082E00E94920088E20E94920086E0C1
S11301A00E94920080E80E9492008FE00E949200D8
S11301B081E00E94920083EF91E00197F1F700C083
S11301C00000089581E00E94920083EF91E001977E
S11301D0F1F700C0000080E80E94920008959BB3EC
S11301E09F70282F207F922B9BBB98B3977F98BB3F
S11301F098B3926098BB98B3946098BB000098B38E
S11302009B7F98BB32E43A95F1F700C02BB330E101
S1130210839FC0011124922F9F70892B8BBB88B3BD
S1130220846088BB000088B38B7F88BB83EF91E038
S11302300197F1F700C0000008950E94C0000E94D9
S113024041000E944600833619F08E36D1F303C074
S11302500E94E200F6CF0E94EF00F3CFF894FFCFA4
S1130260040005000600070000000100020003006E
S11302703738392F3435362A3132332D63303D2B1C
S9030000FC
