S01F0000696E746572727570745F757365645F61746D65676133322E73726563D5
S11300000C942A000C9446000C9434000C94340094
S11300100C9434000C9434000C9434000C9434008C
S11300200C9434000C9434000C9434000C9434007C
S11300300C9434000C9434000C9434000C9434006C
S11300400C9434000C9434000C9434000C9434005C
S11300500C94340011241FBECFE5D8E0DEBFCDBF21
S11300600E9436000C946B000C94000081B38160F4
S113007081BB81B38B7F81BB8FB780688FBF85B70E
S1130080816085BF8BB780648BBFFFCF1F920F92B7
S11300900FB60F9211242F938F939F9382B3816095
S11300A082BB2FE986E891E0215080409040E1F73F
S11300B000C0000082B38E7F82BB8FE493EC019773
S11300C0F1F700C000009F918F912F910F900FBE08
S10D00D00F901F901895F894FFCFCD
S9030000FC
